{
  "fileName": "SimpleStorageV4.sol",
  "contractName": "SimpleStorageV4",
  "source": "//\"SPDX-License-Identifier: UNLICENSED\"\npragma solidity ^0.6.0;\n\nimport \"@openzeppelin/contracts-ethereum-package/contracts/Initializable.sol\";\nimport \"@openzeppelin/contracts-ethereum-package/contracts/math/SafeMath.sol\";\n\ncontract SimpleStorageV4 is Initializable {\n    using SafeMath for uint256;\n    uint256 storedValue;\n    uint256 addedValue;\n    uint256 subtractedValue;\n\n    function initialize () public initializer {\n        storedValue = 0;\n    }\n\n    function retrieve() public view returns (uint256){\n        return storedValue;\n    }\n\n    function changeValue(string memory _task, uint256 _value) public {\n        if (keccak256(abi.encodePacked(_task)) == keccak256(abi.encodePacked(\"add\"))) {\n            addedValue = _value;\n            storedValue.add(_value);\n        }\n        else if (keccak256(abi.encodePacked(_task)) == keccak256(abi.encodePacked(\"sub\")))  {\n            subtractedValue = _value;\n            storedValue.sub(_value);\n        }\n        else {\n            revert(\"Incorrect task\");\n        }\n      \n    }\n}\n\n\n",
  "sourcePath": "contracts/SimpleStorageV4.sol",
  "abi": [
    {
      "inputs": [
        {
          "internalType": "string",
          "name": "_task",
          "type": "string"
        },
        {
          "internalType": "uint256",
          "name": "_value",
          "type": "uint256"
        }
      ],
      "name": "changeValue",
      "outputs": [],
      "stateMutability": "nonpayable",
      "type": "function"
    },
    {
      "inputs": [],
      "name": "initialize",
      "outputs": [],
      "stateMutability": "nonpayable",
      "type": "function"
    },
    {
      "inputs": [],
      "name": "retrieve",
      "outputs": [
        {
          "internalType": "uint256",
          "name": "",
          "type": "uint256"
        }
      ],
      "stateMutability": "view",
      "type": "function"
    }
  ],
  "bytecode": "0x608060405234801561001057600080fd5b50610686806100206000396000f3fe608060405234801561001057600080fd5b50600436106100415760003560e01c80632e64cec1146100465780638129fc1c146100645780639eb981cf1461006e575b600080fd5b61004e610133565b6040518082815260200191505060405180910390f35b61006c61013d565b005b6101316004803603604081101561008457600080fd5b81019080803590602001906401000000008111156100a157600080fd5b8201836020820111156100b357600080fd5b803590602001918460018302840111640100000000831117156100d557600080fd5b91908080601f016020809104026020016040519081016040528093929190818152602001838380828437600081840152601f19601f82011690508083019250505050505050919291929080359060200190929190505050610244565b005b6000603354905090565b600060019054906101000a900460ff168061015c575061015b610479565b5b8061017357506000809054906101000a900460ff16155b6101c8576040517f08c379a000000000000000000000000000000000000000000000000000000000815260040180806020018281038252602e815260200180610623602e913960400191505060405180910390fd5b60008060019054906101000a900460ff161590508015610218576001600060016101000a81548160ff02191690831515021790555060016000806101000a81548160ff0219169083151502179055505b600060338190555080156102415760008060016101000a81548160ff0219169083151502179055505b50565b60405160200180807f6164640000000000000000000000000000000000000000000000000000000000815250600301905060405160208183030381529060405280519060200120826040516020018082805190602001908083835b602083106102c2578051825260208201915060208101905060208303925061029f565b6001836020036101000a038019825116818451168082178552505050505050905001915050604051602081830303815290604052805190602001201415610325578060348190555061031f8160335461049090919063ffffffff16565b50610475565b60405160200180807f7375620000000000000000000000000000000000000000000000000000000000815250600301905060405160208183030381529060405280519060200120826040516020018082805190602001908083835b602083106103a35780518252602082019150602081019050602083039250610380565b6001836020036101000a03801982511681845116808217855250505050505090500191505060405160208183030381529060405280519060200120141561040657806035819055506104008160335461051890919063ffffffff16565b50610474565b6040517f08c379a000000000000000000000000000000000000000000000000000000000815260040180806020018281038252600e8152602001807f496e636f7272656374207461736b00000000000000000000000000000000000081525060200191505060405180910390fd5b5b5050565b6000803090506000813b9050600081149250505090565b60008082840190508381101561050e576040517f08c379a000000000000000000000000000000000000000000000000000000000815260040180806020018281038252601b8152602001807f536166654d6174683a206164646974696f6e206f766572666c6f77000000000081525060200191505060405180910390fd5b8091505092915050565b600061055a83836040518060400160405280601e81526020017f536166654d6174683a207375627472616374696f6e206f766572666c6f770000815250610562565b905092915050565b600083831115829061060f576040517f08c379a00000000000000000000000000000000000000000000000000000000081526004018080602001828103825283818151815260200191508051906020019080838360005b838110156105d45780820151818401526020810190506105b9565b50505050905090810190601f1680156106015780820380516001836020036101000a031916815260200191505b509250505060405180910390fd5b506000838503905080915050939250505056fe436f6e747261637420696e7374616e63652068617320616c7265616479206265656e20696e697469616c697a6564a26469706673582212204395f07e5f9f557998060635b265b9d123576e8c77ea2433d0424434714511c264736f6c634300060b0033",
  "compiler": {
    "name": "solc",
    "version": "0.6.11+commit.5ef660b1.Emscripten.clang",
    "optimizer": {
      "enabled": false,
      "runs": 200
    },
    "evmVersion": "petersburg"
  }
}